:100000000C9435000C9452000C9452000C94520045
:100010000C9452000C9452000C9452000C94520018
:100020000C9452000C9452000C9452000C94520008
:100030000C9452000C9452000C9452000C945200F8
:100040000C9452000C9452000C9452000C945200E8
:100050000C9452000C9452000C9452000C945200D8
:100060000C9452000C945200820111241FBECFEF59
:10007000D8E0DEBFCDBF11E0A0E0B1E001C01D922D
:10008000A330B107E1F710E0CAE6D0E004C0229740
:10009000FE010E94C601C836D107C9F70E948B0134
:1000A0000C94CA010C940000FC01A081B18170E0A5
:1000B000CB01028002C0880F991F0A94E2F7982FA3
:1000C000909511968C911197892311968C93A0810C
:1000D000B181028002C0660F771F0A94E2F7119681
:1000E0008C911197862B11968C9311970895FC0192
:1000F000A081B181428181E090E0042E02C0880F8E
:10010000991F0A94E2F711962C91119730E0282359
:10011000392382179307F1F070E0CB0102C0880FFA
:10012000991F4A95E2F7AC01409512968C9112976F
:10013000842312968C93A081B181028002C0660F45
:10014000771F0A94E2F712968C911297862B1296DB
:100150008C93129708950F931F93DF93CF930F9271
:10016000CDB7DEB78C016F3F7105A1F09CF032E096
:1001700060307307FCF0F4E060307F071CF1F8E0BA
:1001800060307F073CF489E290E0F801918380833E
:1001900067706283C801642F29830E945400C801DC
:1001A0002981622F0E9477000F90CF91DF911F91DC
:1001B0000F91089583E290E0F80191838083677046
:1001C0006283E8CF86E290E0F801918380836770D4
:1001D0006283E0CF0F931F93DF93CF930F92CDB73E
:1001E000DEB78C016F3F7105A1F09CF032E060300A
:1001F0007307FCF0F4E060307F071CF1F8E060303A
:100200007F073CF489E290E0F80191838083677076
:100210006283C801642F29830E945400C801298188
:10022000622F0E9477000F90CF91DF911F910F9165
:10023000089583E290E0F801918380836770628380
:10024000E8CF86E290E0F801918380836770628353
:10025000E0CFFC01A081B18121E030E0028002C04A
:10026000220F331F0A94E2F711968C91119790E0B8
:10027000822393232817390709F0089512968C9149
:100280001297822B12968C9312970895FC01A081ED
:10029000B18121E030E0028002C0220F331F0A94B6
:1002A000E2F711968C91119790E0822393232817FF
:1002B000390709F00895209512968C9112978223A0
:1002C00012968C9312970895FC01428121E030E050
:1002D000042E02C0220F331F0A94E2F70190F0812E
:1002E000E02D8081822390E002C0959587954A9504
:1002F000E2F70895662319F40E94460108950E94CA
:100300002901089580E091E065E071E041E020E09E
:100310000E94AB00089580E091E061E00E947A01C4
:1003200080E091E00E94640180E091E060E00E9442
:100330007A0180E091E00E94640180E090E0DC01BD
:10034000803828E3920721E0A20720E0B20778F086
:1003500080E091E00E946401813069F080E091E0EA
:1003600061E00E947A0180E090E0DC01E9CF019633
:10037000A11DB11DE5CF80E091E060E00E947A010F
:1003800080E090E0DC01DCCFEE0FFF1F0590F491E0
:08039000E02D0994F894FFCF61
:00000001FF
