:100000000C9436000C9453000C9453000C94530041
:100010000C9453000C9453000C9453000C94530014
:100020000C9453000C9453000C9453000C94530004
:100030000C9453000C9453000C9453000C945300F4
:100040000C9453000C9453000C9453000C945300E4
:100050000C9453000C9453000C9453000C945300D4
:100060000C9453000C945300D101D60111241FBEEF
:10007000CFEFD8E0DEBFCDBF11E0A0E0B1E001C01E
:100080001D92A330B107E1F710E0CAE6D0E004C04A
:100090002297FE010E94DD01C836D107C9F70E94F0
:1000A00085010C94E1010C94000008950895FC0171
:1000B000A081B18170E0CB01028002C0880F991F3E
:1000C0000A94E2F7982F909511968C9111978923B5
:1000D00011968C93A081B181028002C0660F771FB8
:1000E0000A94E2F711968C911197862B11968C93B6
:1000F00011970895FC01A081B181428181E090E0D7
:10010000042E02C0880F991F0A94E2F711962C91D1
:10011000119730E02823392382179307F1F070E01C
:10012000CB0102C0880F991F4A95E2F7AC014095B8
:1001300012968C911297842312968C93A081B18190
:10014000028002C0660F771F0A94E2F712968C9124
:100150001297862B12968C93129708950F931F93E4
:10016000DF93CF930F92CDB7DEB78C016F3F710550
:10017000A1F09CF032E060307307FCF0F4E06030F6
:100180007F071CF1F8E060307F073CF489E290E0E3
:10019000F8019183808367706283C801642F29838B
:1001A0000E945700C8012981622F0E947A000F9097
:1001B000CF91DF911F910F91089583E290E0F801B4
:1001C0009183808367706283E8CF86E290E0F801D4
:1001D0009183808367706283E0CF0F931F93DF93D7
:1001E000CF930F92CDB7DEB78C016F3F7105A1F0B1
:1001F0009CF032E060307307FCF0F4E060307F0781
:100200001CF1F8E060307F073CF489E290E0F801EF
:100210009183808367706283C801642F29830E9461
:100220005700C8012981622F0E947A000F90CF9158
:10023000DF911F910F91089583E290E0F80191837F
:10024000808367706283E8CF86E290E0F801918353
:10025000808367706283E0CFFC01A081B18121E0DF
:1002600030E0028002C0220F331F0A94E2F7119699
:100270008C91119790E0822393232817390709F076
:10028000089512968C911297822B12968C93129746
:100290000895FC01A081B18121E030E0028002C01C
:1002A000220F331F0A94E2F711968C91119790E078
:1002B000822393232817390709F008952095129671
:1002C0008C911297822312968C9312970895FC01B9
:1002D000428121E030E0042E02C0220F331F0A9435
:1002E000E2F70190F081E02D8081822390E002C04E
:1002F000959587954A95E2F70895662319F40E942B
:10030000490108950E942C01089580E091E061E088
:100310000E947D0180E091E00E94670180E091E011
:1003200060E00E947D0180E091E00E94670180E032
:1003300090E0DC01803C25E4920724E0A20720E065
:10034000B20778F080E091E00E946701813069F0A7
:1003500080E091E061E00E947D0180E090E0DC01BE
:10036000E9CF0196A11DB11DE5CF80E091E060E0ED
:100370000E947D0180E090E0DC01DCCF81309105BE
:1003800039F0009721F480E091E00E945600089532
:1003900080E091E065E071E041E020E00E94AE0085
:1003A000089581E090E00E94BE01089580E090E011
:1003B0000E94BE010895EE0FFF1F0590F491E02DFD
:1003C000099410E0CAE6D0E004C0FE010E94DD01FD
:0C03D0002296CC36D107C9F7F894FFCF75
:00000001FF
